:020000040800F2
:100000000028002021110008B1100008B7100008D6
:10001000BD100008C3100008C9100008000000004F
:10002000000000000000000000000000CF100008E9
:10003000DB10000800000000E7100008F3100008C3
:1000400069110008691100086911000869110008A8
:100050006911000869110008691100086911000898
:100060006911000869110008691100086911000888
:100070006911000869110008691100086911000878
:100080006911000869110008691100086911000868
:100090006911000869110008691100086911000858
:1000A0006911000869110008691100086911000848
:1000B0000111000869110008000000006911000822
:1000C000691100080000000000000000691100082C
:1000D000000000006911000869110008000000001C
:1000E000691100086911000869110008000000008A
:1000F0000000000000000000000000000000000000
:0C01000000000000000000005FF808F1A3
:10010C0010B5054C237833B9044B13B10448AFF345
:10011C0000800123237010BD3C0000200000000073
:10012C009827000808B5034B1BB103490348AFF3EC
:10013C00008008BD00000000400000209827000847
:10014C0080B500AF744B1B78002B00F0E28080214F
:10015C00724801F01EFB724B1B78724A12781146E2
:10016C00184600F07DFD704B1B78022B21D0022B22
:10017C0055DC002B02D0012B36D050E0002202219E
:10018C00664801F0EEFA01220421644801F0E9FA14
:10019C0001220821614801F0E4FA614B1B78002B25
:1001AC003FD1614B01221A70604B1A785C4B1A706C
:1001BC0037E001220221594801F0D3FA0022042130
:1001CC00564801F0CEFA01220821544801F0C9FA30
:1001DC00534B1B78002B26D1534B00221A70544BD7
:1001EC001A784F4B1A701EE0012202214B4801F085
:1001FC00B8FA01220421494801F0B3FA002208217F
:10020C00464801F0AEFA464B1B78002B0DD1464BFD
:10021C0002221A70474B1A78414B1A7005E000BF46
:10022C0004E000BF02E000BF00E000BF424B1B78BF
:10023C00022B21D0022B55DC002B02D0012B36D007
:10024C0050E000221021354801F08BFA01222021C8
:10025C00324801F086FA01224021304801F081FA3F
:10026C00304B1B78002B3FD1334B01221A702F4B94
:10027C001A782C4B1A7037E001221021274801F014
:10028C0070FA00222021254801F06BFA012240214E
:10029C00224801F066FA234B1B78002B26D1264B03
:1002AC0000221A70224B1A781E4B1A701EE0012283
:1002BC0010211A4801F055FA01222021174801F0AB
:1002CC0050FA00224021154801F04BFA154B1B78CF
:1002DC00002B0DD1184B02221A70164B1A78114BA9
:1002EC001A7005E000BF04E000BF02E000BF00E0B0
:1002FC0000BF0B4B1B78013BDAB2094B1A70094B50
:10030C001B78013BDAB2074B1A704FF47A7000F08D
:10031C00D1FA00BF80BD00BF5A0000200008014088
:10032C0003000020040000205800002002000020E0
:10033C0000000020010000200500002080B500AF67
:10034C0001220421114801F00CFA012208210F4866
:10035C0001F007FA012220210C4801F002FA0122D7
:10036C0040210A4801F0FDF9094B1B78002B0BD0FA
:10037C000221064801F00DFA1021044801F009FA97
:10038C004FF4FA7000F0CEFA00BF80BD00080140B7
:10039C005C00002080B500AF01220221114801F061
:1003AC00E0F9012208210F4801F0DBF901221021AC
:1003BC000C4801F0D6F9012240210A4801F0D1F98C
:1003CC00094B1B78002B0BD00421064801F0E1F9F6
:1003DC002021044801F0DDF94FF4FA7000F0A2FA84
:1003EC0000BF80BD000801405C00002080B500AF5C
:1003FC0001220421114801F0B4F9012202210F4815
:10040C0001F0AFF9012220210C4801F0AAF90122D8
:10041C0010210A4801F0A5F9094B1B78002B0BD0D1
:10042C000821064801F0B5F94021044801F0B1F962
:10043C004FF4FA7000F076FA00BF80BD000801405E
:10044C005C00002080B500AF00F0C2FAA14B1B7815
:10045C001A46A14B53F822309847A04B1B78002B1F
:10046C0021D0012280219E4801F07BF9994B1B7809
:10047C000133DAB2974B1A70964B1B78032B40F270
:10048C00FF80944B00221A70964B00221A70964BE8
:10049C0001221A70954B1A78954B1A70954B1A7855
:1004AC00954B1A70ECE08D4B5B78002B54D00122ED
:1004BC0080218B4801F055F9864B1B78032B00F2F9
:1004CC00CC8001A252F823F067060008E50400086E
:1004DC000D05000839050008884B1B78622B00F2CB
:1004EC00BE80864B1B780133DAB2844B1A70834B77
:1004FC001A78834B1B78D31ADAB2824B1A70AEE09F
:10050C007F4B1A787D4B1B789A4280F0AA807C4BEB
:10051C001B780133DAB27A4B1A70784B1A78784B15
:10052C001B78D31ADAB2774B1A709AE0754B1A789B
:10053C00724B1B789A4280F09680724B1B78013379
:10054C00DAB2704B1A706D4B1A786E4B1B78D31A4B
:10055C00DAB26B4B1A7086E0604B9B78002B55D04F
:10056C00012280215E4801F0FCF85A4B1B78032BCA
:10057C007BD801A252F823F07706000895050008F5
:10058C00CD050008F30500085C4B1B78022B6ED9D7
:10059C005A4B1B78013BDAB2584B1A70594B1B78EB
:1005AC00002B06D0574B1B78013BDAB2554B1A7017
:1005BC005DE0534B1B78013BDAB2514B1A7056E09D
:1005CC004F4B1B78012B54D94D4B1B78013BDAB2A6
:1005DC004B4B1A70494B1A78494B1B78D31ADAB229
:1005EC00484B1A7045E0474B1B78012B43D9454BC0
:1005FC001B78013BDAB2434B1A70404B1A78414BD3
:10060C001B78D31ADAB23E4B1A7034E0334BDB78DA
:10061C00002B32D000228021314801F0A2F82D4B62
:10062C001B78032B2BD801A252F823F08B06000861
:10063C0049060008530600085D0600082F4B1A787F
:10064C002A4B1A701CE02E4B1A782F4B1A7017E09D
:10065C002C4B1A78274B1A7012E000BF10E000BF29
:10066C000EE000BF0CE000BF0AE000BF08E000BFD6
:10067C0006E000BF04E000BF02E000BF00E000BFE6
:10068C00224B1B78002B58D0124B1B78032B3FD8D6
:10069C0001A252F823F000BF1D070008B5060008A0
:1006AC00C3060008D1060008144B1B78022118461B
:1006BC0000F0D6FA2DE0124B1B780321184600F0FF
:1006CC00CFFA26E00F4B1B780421184600F0C8FA2D
:1006DC001FE000BF59000020080000206800002027
:1006EC0000080140580000200500002000000020F8
:1006FC00030000200200002004000020180000204D
:10070C00190000201A000020010000205B000020CE
:10071C0000BF0B4B1B780221184600F027FB084B3F
:10072C001B780133002B03F00103B8BF5B42DAB234
:10073C00034B1A70FA2000F0D9F800BF80BD00BF3F
:10074C007800002080B485B000AFF860B9603B60E1
:10075C001346FB80FB68BA681A60FB683A689A60BB
:10076C00FB68FA691A61FB687A6A9A61FB68FA6A33
:10077C001A62FB687A6B9A62FB68FA6B1A63FB6805
:10078C00FA889A80FB683A8B9A81FB683A8C9A8239
:10079C00FB683A8D9A83FB683A8E9A84FB683A8F91
:1007AC009A85FB68B7F840209A8600BF1437BD467F
:1007BC0080BC704780B582B000AF78600B46FB7090
:1007CC007B6818687B689988FB78334AD35C03F0A4
:1007DC000103DBB21A4600F0C4FF7B6898687B68A3
:1007EC009989FB782C4AD35C5B10DBB203F00103D4
:1007FC00DBB21A4600F0B5FF7B6818697B68998AF2
:10080C00FB78254AD35C9B10DBB203F00103DBB20F
:10081C001A4600F0A6FF7B6898697B68998BFB7879
:10082C001D4AD35CDB10DBB203F00103DBB21A46CA
:10083C0000F097FF7B68186A7B68998CFB78164AE6
:10084C00D35C1B11DBB203F00103DBB21A4600F0E0
:10085C0088FF7B68986A7B68998DFB780E4AD35C1D
:10086C005B11DBB203F00103DBB21A4600F079FF37
:10087C007B68186B7B68998EFB78074AD35C9B115D
:10088C00DBB203F00103DBB21A4600F06AFF00BFD3
:10089C000837BD4680BD00BF1C00002080B582B06B
:1008AC0000AF786000F05AF800F0F2F800BF08379B
:1008BC00BD4680BD80B483B000AF7860084B1B7818
:1008CC001A467B6893FBF2F3DAB2064B1A70064BAE
:1008DC0000221A7000BF0C37BD4680BC704700BFA9
:1008EC00260000207A0000205A00002080B483B03B
:1008FC0000AF7860084B1B781A467B6893FBF2F3C9
:10090C00DAB2064B1A70064B00221A7000BF0C3775
:10091C00BD4680BC704700BF260000207900002037
:10092C005B00002080B483B000AF7860084B1B786C
:10093C001A467B6893FBF2F3DAB2064B1A70064B3D
:10094C0000221A7000BF0C37BD4680BC704700BF38
:10095C00260000207B0000205C00002080B400AF4B
:10096C00154B1B78013BDAB2134B1A70124B1B78E8
:10097C00002B02D1114B01221A70114B1B78013B39
:10098C00DAB20F4B1A700E4B1B78002B02D10D4BA9
:10099C0001221A700C4B1B78013BDAB20A4B1A700D
:1009AC00094B1B78002B02D1084B01221A7000BF97
:1009BC00BD4680BC704700BF7A0000205A00002062
:1009CC00790000205B0000207B0000205C000020F0
:1009DC0080B582B000AF00237B604AE0294A7B6877
:1009EC0013441B78002B02D0012B0ED01EE07B6829
:1009FC00DBB2184600F092F80346002B13D0214AC4
:100A0C007B68134401221A700DE07B68DBB2184638
:100A1C0000F084F80346002B07D11A4A7B68134474
:100A2C0000221A7001E000BF00E000BF164A7B688C
:100A3C0013441B78002B0BD1124A7B6813441B7890
:100A4C00012B05D1114A7B68134401221A7004E072
:100A5C000E4A7B68134400221A700A4A7B681344BE
:100A6C001978094A7B6813440A461A707B6801336B
:100A7C007B607B68032BB1DD00BF00BF0837BD4630
:100A8C0080BD00BF600000206400002068000020D2
:100A9C0080B582B000AF00237B602DE01A4A7B68E2
:100AAC0013441978194A7B6813440A461A70184A79
:100ABC007B6832F813301946164800F03BFE0346AB
:100ACC001946114A7B6813440A461A700E4A7B6811
:100ADC0013441A780D497B680B441B789A4208D151
:100AEC00094A7B68134419780B4A7B6813440A46FD
:100AFC001A707B6801337B607B68032BCEDD00BFF3
:100B0C0000BF0837BD4680BD700000207400002077
:100B1C0028000020000801406C00002080B483B045
:100B2C0000AF0346FB71FB79032B01D9002307E0CF
:100B3C00FB79064AD35C002B0CBF01230023DBB2EC
:100B4C0018460C37BD4680BC704700BF6C000020B7
:100B5C0080B58CB00CAF012202213D4800F001FEA3
:100B6C00012204213A4800F0FCFD012208213848FA
:100B7C0000F0F7FD01221021354800F0F2FD0122B2
:100B8C002021334800F0EDFD01224021304800F0D7
:100B9C00E8FD01224FF480512D4800F0E2FD0122C6
:100BAC004FF400512A4800F0DCFD01224FF4804143
:100BBC00274800F0D6FD01224FF40041244800F0F4
:100BCC00D0FD01228021224800F0CBFD40230A9366
:100BDC00204B0993202308931E4B07931023069355
:100BEC001C4B0593082304931A4B03930423029381
:100BFC00184B019302230093164B012215491648FA
:100C0C00FFF7A0FD4FF400530A93124B09934FF4D6
:100C1C00805308930F4B07934FF4006306930D4BCF
:100C2C0005934FF4806304930A4B03934FF40073C2
:100C3C000293084B01934FF480730093054B802271
:100C4C0004490648FFF77EFD00BFBD4680BD00BFCE
:100C5C0000080140000C0140BC0000207C0000207A
:100C6C0080B483B000AF03460A46FB711346BB71D8
:100C7C00FB79194AA2FB0323DB08DBB21A46174B9C
:100C8C001A60FA79144BA3FB0213D9080B469B008C
:100C9C000B445B00D31ADBB21A46104B5A60BB797B
:100CAC000D4AA2FB0323DB08DBB21A460C4B1A607D
:100CBC00BA79094BA3FB0213D9080B469B000B44D2
:100CCC005B00D31ADBB21A46054B5A6000BF0C37D7
:100CDC00BD4680BC704700BFCDCCCCCCF40000200E
:100CEC00B400002080B582B000AF78607B68002B28
:100CFC0003D07B68012B19D031E000224FF48051D6
:100D0C00194800F02EFD01224FF40051164800F056
:100D1C0028FD00224FF48041134800F022FD0122EF
:100D2C004FF40041104800F01CFD18E001224FF474
:100D3C0080510D4800F015FD00224FF400510A4877
:100D4C0000F00FFD01224FF48041074800F009FD2F
:100D5C0000224FF40041044800F003FD00BF00BF27
:100D6C000837BD4680BD00BF0008014080B582B089
:100D7C0000AF03460A46FB711346BB71FB7918465C
:100D8C00FFF7B0FFBB79012B12D1FB79134A52F854
:100D9C002330DBB219461248FFF70CFDFB79114AE0
:100DAC0052F82330DBB219460F48FFF703FD11E070
:100DBC00FB790A4A52F82330DBB219460848FFF790
:100DCC00F9FCFB79074A52F82330DBB21946064886
:100DDC00FFF7F0FC00BF0837BD4680BDF4000020D3
:100DEC00BC000020B40000207C00002080B500AFC7
:100DFC0000F0B6F900F00EF800F094F800F046F8A8
:100E0C00034801F00BF9FFF7A3FEFFF71BFBFCE710
:100E1C00FC00002080B590B000AF07F11803282229
:100E2C000021184601F0AAFC3B1D00221A605A60F2
:100E3C009A60DA601A610223BB610123BB62102342
:100E4C00FB6200237B6307F11803184600F0BAFC21
:100E5C000346002B01D000F0C9F80F237B60002360
:100E6C00BB600023FB6000233B6100237B613B1DC7
:100E7C000021184600F026FF0346002B01D000F09D
:100E8C00B5F800BF4037BD4680BD000080B586B0C8
:100E9C0000AF07F1080300221A605A609A60DA600A
:100EAC003B4600221A605A601D4B4FF080421A607C
:100EBC001B4B41F63F725A60194B00229A60184B3B
:100ECC000922DA60164B00221A61154B00229A6136
:100EDC00134801F053F80346002B01D000F086F8BC
:100EEC004FF48053BB6007F1080319460C4801F01E
:100EFC00D1F90346002B01D000F078F800233B60B9
:100F0C0000237B603B461946054801F0A9FB0346CC
:100F1C00002B01D000F06AF800BF1837BD4680BD29
:100F2C00FC00002080B586B000AF07F1080300225A
:100F3C001A605A609A60DA60294B9B69284A43F020
:100F4C0004039361264B9B6903F004037B607B686D
:100F5C00234B9B69224A43F008039361204B9B6906
:100F6C0003F008033B603B6800224FF2FE011D4872
:100F7C0000F0F7FB002243F6FF711B4800F0F1FB79
:100F8C004FF2FE03BB600123FB6000233B61022395
:100F9C007B6107F108031946124800F051FA43F639
:100FAC00FF73BB600123FB6000233B6102237B6169
:100FBC0007F1080319460C4800F042FA4FF470632D
:100FCC00BB600023FB6001233B6107F1080319465A
:100FDC00044800F035FA00BF1837BD4680BD00BF8D
:100FEC000010024000080140000C014080B400AF2A
:100FFC0072B600BFFEE7000080B485B000AF154BA1
:10100C009B69144A43F001039361124B9B6903F0F3
:10101C000103BB60BB680F4BDB690E4A43F0805386
:10102C00D3610C4BDB6903F080537B607B680A4B0C
:10103C005B68FB60FB6823F0E063FB60FB6843F0DC
:10104C008063FB60044AFB68536000BF1437BD46E5
:10105C0080BC7047001002400000014080B584B095
:10106C0000AF78607B681B68B3F1804F13D10C4BD9
:10107C00DB690B4A43F00103D361094BDB6903F0D5
:10108C000103FB60FB68002200211C2000F0A1F989
:10109C001C2000F0BAF900BF1037BD4680BD00BF60
:1010AC000010024080B400AFFEE780B400AFFEE752
:1010BC0080B400AFFEE780B400AFFEE780B400AFB1
:1010CC00FEE780B400AF00BFBD4680BC704780B463
:1010DC0000AF00BFBD4680BC704780B400AF00BFFE
:1010EC00BD4680BC704780B500AF00F07FF800BFF4
:1010FC0080BD000080B500AF024800F0DBFF00BFF0
:10110C0080BD00BFFC00002080B400AF00BFBD4616
:10111C0080BC7047FFF7F8FF0B480C490C4A0023C2
:10112C0002E0D458C4500433C4188C42F9D3094A91
:10113C00094C002301E013600432A242FBD301F0FE
:10114C00F9FAFFF753FE7047000000203C00002026
:10115C00DC2700083C00002048010020FEE70000CE
:10116C0080B500AF084B1B68074A43F010031360AF
:10117C00032000F023F90F2000F008F8FFF73CFFE4
:10118C000023184680BD00BF0020024080B582B00D
:10119C0000AF7860124B1A68124B1B7819464FF44B
:1011AC007A73B3FBF1F3B2FBF3F3184600F03BF99F
:1011BC000346002B01D001230EE07B680F2B0AD8CD
:1011CC00002279684FF0FF3000F003F9064A7B6883
:1011DC001360002300E0012318460837BD4680BD8C
:1011EC0030000020380000203400002080B400AF14
:1011FC00054B1B781A46054B1B681344034A1360B6
:10120C0000BFBD4680BC7047380000204401002060
:10121C0080B400AF024B1B681846BD4680BC7047BB
:10122C004401002080B485B000AF78607B6803F087
:10123C000703FB600C4BDB68BB60BA684FF6FF031F
:10124C001340BB60FB681A02BB68134343F0BF63D7
:10125C0043F40033BB60044ABB68D36000BF14374F
:10126C00BD4680BC704700BF00ED00E080B400AF0D
:10127C00044BDB681B0A03F007031846BD4680BC11
:10128C00704700BF00ED00E080B483B000AF0346B0
:10129C00FB7197F90730002B0BDBFB7903F01F0276
:1012AC00064997F907305B09012000FA02F241F870
:1012BC00232000BF0C37BD4680BC704700E100E026
:1012CC0080B483B000AF03463960FB7197F90730E7
:1012DC00002B0ADB3B68DAB20C4997F90730120194
:1012EC00D2B20B4483F800230AE03B68DAB2084917
:1012FC00FB7903F00F03043B1201D2B20B441A76B4
:10130C0000BF0C37BD4680BC704700BF00E100E059
:10131C0000ED00E080B489B000AFF860B9607A608D
:10132C00FB6803F00703FB61FB69C3F10703042BA4
:10133C0028BF0423BB61FB690433062B02D9FB696C
:10134C00033B00E000237B614FF0FF32BB6902FAE4
:10135C0003F3DA43BB681A407B699A404FF0FF31C4
:10136C007B6901FA03F3D9437B680B40134318469E
:10137C002437BD4680BC704780B582B000AF786022
:10138C007B68013BB3F1807F01D301230FE00A4A54
:10139C007B68013B53600F214FF0FF30FFF790FF4C
:1013AC00054B00229A60044B07221A600023184652
:1013BC000837BD4680BD00BF10E000E080B582B0AC
:1013CC0000AF78607868FFF72DFF00BF0837BD4687
:1013DC0080BD80B586B000AF0346B9607A60FB7300
:1013EC0000237B61FFF742FF78617A68B9687869FE
:1013FC00FFF790FF024697F90F3011461846FFF79A
:10140C005FFF00BF1837BD4680BD80B582B000AF0E
:10141C000346FB7197F907301846FFF735FF00BFFD
:10142C000837BD4680BD80B582B000AF7860786863
:10143C00FFF7A2FF034618460837BD4680BD0000E3
:10144C0080B48BB000AF7860396000237B620023DE
:10145C003B6248E101227B6A02FA03F3FB613B68C1
:10146C001B68FA691340BB61BA69FB699A4240F088
:10147C0037813B685B68A34A93425ED0A14A934292
:10148C0075D8A14A934258D09F4A93426FD89F4A2D
:10149C00934252D09D4A934269D89D4A93424CD074
:1014AC009B4A934263D89B4A934246D0994A9342B3
:1014BC005DD8122B2AD8122B59D801A252F823F03E
:1014CC00471500082115000833150008751500088C
:1014DC007B1500087B1500087B1500087B150008A0
:1014EC007B1500087B1500087B1500087B15000890
:1014FC007B1500087B1500087B1500087B15000880
:10150C007B150008291500083D150008824A9342F6
:10151C0013D02CE03B68DB683B6229E03B68DB685E
:10152C0004333B6224E03B68DB6808333B621FE01A
:10153C003B68DB680C333B621AE03B689B68002B12
:10154C0002D104233B6213E03B689B68012B05D15D
:10155C0008233B627B68FA691A6109E008233B6245
:10156C007B68FA695A6103E000233B6200E000BF2C
:10157C00BB69FF2B01D87B6801E07B6804337B617E
:10158C00BB69FF2B02D87B6A9B0002E07B6A083B9D
:10159C009B003B617B691A680F213B6901FA03F3DD
:1015AC00DB431A40396A3B6901FA03F31A437B693E
:1015BC001A603B685B6803F08053002B00F090804E
:1015CC00564B9B69554A43F001039361534B9B69FE
:1015DC0003F00103BB60BB68514A7B6A9B08023372
:1015EC0052F82330FB607B6A03F003039B000F224D
:1015FC0002FA03F3DB43FA681340FB607B68494A49
:10160C0093420DD07B68484A934207D07B68474A87
:10161C00934201D1022304E0032302E0012300E002
:10162C0000237A6A02F0030292009340FA68134393
:10163C00FB603B497B6A9B080233FA6841F8232024
:10164C003B685B6803F48013002B06D0384B9A6818
:10165C003749BB6913438B6006E0354B9A68BB690D
:10166C00DB43334913408B603B685B6803F4001326
:10167C00002B06D02E4BDA682D49BB691343CB6087
:10168C0006E02B4BDA68BB69DB4329491340CB607E
:10169C003B685B6803F40033002B06D0244B5A687C
:1016AC002349BB6913434B6006E0214B5A68BB6965
:1016BC00DB431F4913404B603B685B6803F480338A
:1016CC00002B06D01A4B1A681949BB6913430B60DF
:1016DC0006E0174B1A68BB69DB43154913400B60D6
:1016EC007B6A01337B623B681A687B6A22FA03F3DC
:1016FC00002B7FF4AFAE00BF00BF2C37BD4680BCC3
:10170C00704700BF000032100000311000002210A2
:10171C0000002110000012100000111000100240F7
:10172C000000014000080140000C01400010014085
:10173C000004014080B485B000AF78600B467B801C
:10174C007B689A687B881340002B02D00123FB73C3
:10175C0001E00023FB73FB7B18461437BD4680BCAD
:10176C00704780B483B000AF78600B467B80134623
:10177C007B707B78002B03D07A887B681A6103E03E
:10178C007B881A047B681A6100BF0C37BD4680BC8D
:10179C00704780B485B000AF78600B467B807B6867
:1017AC00DB68FB607A88FB6813401A04FB68D9433A
:1017BC007B880B401A437B681A6100BF1437BD4607
:1017CC0080BC704780B586B000AF78607B68002B1A
:1017DC0001D101236CE27B681B6803F00103002B31
:1017EC0000F08780924B5B6803F00C03042B0CD049
:1017FC008F4B5B6803F00C03082B12D18C4B5B688E
:10180C0003F48033B3F5803F0BD1894B1B6803F491
:10181C000033002B6CD07B685B68002B68D10123F4
:10182C0046E27B685B68B3F5803F06D1804B1B6852
:10183C007F4A43F4803313602EE07B685B68002B97
:10184C000CD17B4B1B687A4A23F480331360784BA2
:10185C001B68774A23F4802313601DE07B685B6868
:10186C00B3F5A02F0CD1724B1B68714A43F4802343
:10187C0013606F4B1B686E4A43F4803313600BE0AC
:10188C006B4B1B686A4A23F480331360684B1B68EC
:10189C00674A23F4802313607B685B68002B13D0AA
:1018AC00FFF7B6FC386108E0FFF7B2FC02463B6973
:1018BC00D31A642B01D90323FAE15D4B1B6803F4A3
:1018CC000033002BF0D014E0FFF7A2FC386108E0E5
:1018DC00FFF79EFC02463B69D31A642B01D9032304
:1018EC00E6E1534B1B6803F40033002BF0D100E00E
:1018FC0000BF7B681B6803F00203002B63D04C4BCA
:10190C005B6803F00C03002B0BD0494B5B6803F0B6
:10191C000C03082B1CD1464B5B6803F48033002B63
:10192C0016D1434B1B6803F00203002B05D07B68D8
:10193C001B69012B01D00123BAE13D4B1B6823F03D
:10194C00F8027B685B69DB00394913430B603AE0B2
:10195C007B681B69002B20D0364B01221A60FFF7E5
:10196C0057FC386108E0FFF753FC02463B69D31A79
:10197C00022B01D903239BE12D4B1B6803F00203BF
:10198C00002BF0D02A4B1B6823F0F8027B685B69B4
:10199C00DB00274913430B6015E0264B00221A602D
:1019AC00FFF736FC386108E0FFF732FC02463B6972
:1019BC00D31A022B01D903237AE11D4B1B6803F0C8
:1019CC000203002BF0D17B681B6803F00803002B8B
:1019DC003AD07B689B69002B19D0174B01221A60F7
:1019EC00FFF716FC386108E0FFF712FC02463B6972
:1019FC00D31A022B01D903235AE10D4B5B6A03F076
:101A0C000203002BF0D0012000F09AFA1CE00A4BE4
:101A1C0000221A60FFF7FCFB38610FE0FFF7F8FBC0
:101A2C0002463B69D31A022B08D9032340E100BFBD
:101A3C000010024000004242800442429E4B5B6A0E
:101A4C0003F00203002BE9D17B681B6803F004034D
:101A5C00002B00F0A6800023FB75974BDB6903F08D
:101A6C008053002B0DD1944BDB69934A43F0805388
:101A7C00D361914BDB6903F08053BB60BB680123DE
:101A8C00FB758E4B1B6803F48073002B18D18B4BAA
:101A9C001B688A4A43F480731360FFF7B9FB386103
:101AAC0008E0FFF7B5FB02463B69D31A642B01D95A
:101ABC000323FDE0814B1B6803F48073002BF0D0F3
:101ACC007B68DB68012B06D17B4B1B6A7A4A43F09F
:101ADC00010313622DE07B68DB68002B0CD1764B85
:101AEC001B6A754A23F001031362734B1B6A724A1B
:101AFC0023F0040313621CE07B68DB68052B0CD11C
:101B0C006D4B1B6A6C4A43F0040313626A4B1B6AED
:101B1C00694A43F0010313620BE0674B1B6A664A88
:101B2C0023F001031362644B1B6A634A23F0040322
:101B3C0013627B68DB68002B15D0FFF769FB3861FB
:101B4C000AE0FFF765FB02463B69D31A41F2883283
:101B5C00934201D90323ABE0574B1B6A03F00203FA
:101B6C00002BEED014E0FFF753FB38610AE0FFF7CF
:101B7C004FFB02463B69D31A41F28832934201D99A
:101B8C00032395E04C4B1B6A03F00203002BEED1B0
:101B9C00FB7D012B05D1484BDB69474A23F0805371
:101BAC00D3617B68DB69002B00F08180424B5B6862
:101BBC0003F00C03082B61D07B68DB69022B46D148
:101BCC003F4B00221A60FFF723FB386108E0FFF758
:101BDC001FFB02463B69D31A022B01D9032367E092
:101BEC00354B1B6803F00073002BF0D17B681B6A2C
:101BFC00B3F5803F08D1304B5B6823F400327B682F
:101C0C009B682D4913434B602B4B5B6823F4741278
:101C1C007B68196A7B685B6A0B43274913434B60EB
:101C2C00274B01221A60FFF7F3FA386108E0FFF73F
:101C3C00EFFA02463B69D31A022B01D9032337E092
:101C4C001D4B1B6803F00073002BF0D02FE01C4BD6
:101C5C0000221A60FFF7DCFA386108E0FFF7D8FAC7
:101C6C0002463B69D31A022B01D9032320E0124B05
:101C7C001B6803F00073002BF0D118E07B68DB6964
:101C8C00012B01D1012313E00B4B5B68FB60FB685C
:101C9C0003F480327B681B6A9A4206D1FB6803F41A
:101CAC0070127B685B6A9A4201D0012300E000232A
:101CBC0018461837BD4680BD001002400070004029
:101CCC006000424280B584B000AF786039607B68B8
:101CDC00002B01D10123D0E06A4B1B6803F00703F2
:101CEC003A689A4210D9674B1B6823F00702654982
:101CFC003B6813430B60634B1B6803F007033A68A4
:101D0C009A4201D00123B8E07B681B6803F0020300
:101D1C00002B20D07B681B6803F00403002B05D03C
:101D2C00594B5B68584A43F4E06353607B681B680B
:101D3C0003F00803002B05D0534B5B68524A43F465
:101D4C0060535360504B5B6823F0F0027B689B68D8
:101D5C004D4913434B607B681B6803F00103002B58
:101D6C0040D07B685B68012B07D1474B1B6803F4A1
:101D7C000033002B15D101237FE07B685B68022BBD
:101D8C0007D1414B1B6803F00073002B09D10123D1
:101D9C0073E03D4B1B6803F00203002B01D10123C0
:101DAC006BE0394B5B6823F003027B685B68364958
:101DBC0013434B60FFF72CFAF8600AE0FFF728FAA0
:101DCC000246FB68D31A41F28832934201D90323AD
:101DDC0053E02D4B5B6803F00C027B685B689B0047
:101DEC009A42EBD1274B1B6803F007033A689A42DF
:101DFC0010D2244B1B6823F0070222493B68134383
:101E0C000B60204B1B6803F007033A689A4201D021
:101E1C00012332E07B681B6803F00403002B08D01D
:101E2C00194B5B6823F4E0627B68DB68164913434B
:101E3C004B607B681B6803F00803002B09D0124B26
:101E4C005B6823F460527B681B69DB000E4913430B
:101E5C004B6000F021F802460B4B5B681B0903F04A
:101E6C000F030A49CB5C22FA03F3094A1360094BAE
:101E7C001B681846FFF78AF9002318461037BD4631
:101E8C0080BD00BF0020024000100240B0270008B7
:101E9C00300000203400002080B487B000AF002355
:101EAC00FB600023BB6000237B6100237B6000236D
:101EBC003B611E4B5B68FB60FB6803F00C03042B5F
:101ECC0002D0082B03D027E0194B3B6127E0FB68BD
:101EDC009B0C03F00F03174AD35C7B60FB6803F485
:101EEC008033002B10D0114B5B685B0C03F00103AB
:101EFC00114AD35CBB607B680D4A02FB03F2BB68E2
:101F0C00B2FBF3F37B6104E07B680C4A02FB03F346
:101F1C007B617B693B6102E0054B3B6100BF3B6928
:101F2C0018461C37BD4680BC704700BF00100240ED
:101F3C0000127A00C0270008D027000800093D00D5
:101F4C0080B485B000AF78600A4B1B680A4AA2FBCC
:101F5C0003235B0A7A6802FB03F3FB6000BFFB6898
:101F6C005A1EFA60002BF9D100BF00BF1437BD46D2
:101F7C0080BC704730000020D34D621080B582B019
:101F8C0000AF78607B68002B01D1012341E07B68B6
:101F9C0093F83D30DBB2002B06D17B68002283F82E
:101FAC003C207868FFF75AF87B68022283F83D20C2
:101FBC007B681A687B6804331946104600F056FAA1
:101FCC007B68012283F846207B68012283F83E203F
:101FDC007B68012283F83F207B68012283F8402034
:101FEC007B68012283F841207B68012283F8422020
:101FFC007B68012283F843207B68012283F844200C
:10200C007B68012283F845207B68012283F83D2000
:10201C00002318460837BD4680BD000080B485B04B
:10202C0000AF78607B6893F83D30DBB2012B01D0B8
:10203C00012335E07B68022283F83D207B681B6816
:10204C00DA687B681B6842F00102DA607B681B6807
:10205C00164A934209D07B681B68B3F1804F04D0B9
:10206C007B681B68124A934211D17B681B689B6882
:10207C0003F00703FB60FB68062B10D07B681B6822
:10208C001A687B681B6842F001021A6007E07B68E3
:10209C001B681A687B681B6842F001021A600023F7
:1020AC0018461437BD4680BC704700BF002C014059
:1020BC000004004080B584B000AF78607B681B687A
:1020CC00DB68FB607B681B681B69BB60BB6803F04B
:1020DC000203002B20D0FB6803F00203002B1BD063
:1020EC007B681B686FF002021A617B6801221A7709
:1020FC007B681B689B6903F00303002B03D0786893
:10210C0000F098F905E0786800F08BF9786800F039
:10211C009AF97B6800221A77BB6803F00403002B42
:10212C0020D0FB6803F00403002B1BD07B681B68DA
:10213C006FF004021A617B6802221A777B681B68B5
:10214C009B6903F44073002B03D0786800F072F99C
:10215C0005E0786800F065F9786800F074F97B6840
:10216C0000221A77BB6803F00803002B20D0FB6811
:10217C0003F00803002B1BD07B681B686FF0080270
:10218C001A617B6804221A777B681B68DB6903F091
:10219C000303002B03D0786800F04CF905E0786855
:1021AC0000F03FF9786800F04EF97B6800221A774E
:1021BC00BB6803F01003002B20D0FB6803F0100366
:1021CC00002B1BD07B681B686FF010021A617B68B8
:1021DC0008221A777B681B68DB6903F44073002BB9
:1021EC0003D0786800F026F905E0786800F019F95A
:1021FC00786800F028F97B6800221A77BB6803F036
:10220C000103002B0CD0FB6803F00103002B07D05B
:10221C007B681B686FF001021A617868FEF73EFB61
:10222C00BB6803F08003002B0CD0FB6803F0800329
:10223C00002B07D07B681B686FF080021A617868EE
:10224C0000F06FFABB6803F04003002B0CD0FB6866
:10225C0003F04003002B07D07B681B686FF0400233
:10226C001A61786800F0F8F8BB6803F02003002BC3
:10227C000CD0FB6803F02003002B07D07B681B6895
:10228C006FF020021A61786800F042FA00BF103734
:10229C00BD4680BD80B584B000AF78603960002346
:1022AC00FB737B6893F83C30012B01D10223B4E023
:1022BC007B68012283F83C207B68022283F83D2056
:1022CC007B681B689B68BB60BB6823F07703BB60B3
:1022DC00BB6823F47F43BB607B681B68BA689A6059
:1022EC003B681B68B3F5005F3ED0B3F5005F00F2AE
:1022FC008780B3F5805F00F08680B3F5805F7FD870
:10230C00702B1AD0702B7BD8602B50D0602B77D8C9
:10231C00502B3CD0502B73D8402B58D0402B6FD81F
:10232C00302B64D0302B6BD8202B60D0202B67D86F
:10233C00002B5CD0102B5AD062E07B6818683B688D
:10234C0099683B685A683B68DB6800F06AF97B68FF
:10235C001B689B68BB60BB6843F07703BB607B6802
:10236C001B68BA689A604FE07B6818683B6899688C
:10237C003B685A683B68DB6800F053F97B681B6864
:10238C009A687B681B6842F480429A603CE07B68E8
:10239C0018683B6859683B68DB681A4600F0CAF855
:1023AC007B681B685021184600F021F92CE07B68F3
:1023BC0018683B6859683B68DB681A4600F0E8F817
:1023CC007B681B686021184600F011F91CE07B68E3
:1023DC0018683B6859683B68DB681A4600F0AAF835
:1023EC007B681B684021184600F001F90CE07B6803
:1023FC001A683B681B681946104600F0F8F803E0B1
:10240C000123FB7300E000BF7B68012283F83D20B1
:10241C007B68002283F83C20FB7B18461037BD46B6
:10242C0080BD80B483B000AF786000BF0C37BD4670
:10243C0080BC704780B483B000AF786000BF0C37AD
:10244C00BD4680BC704780B483B000AF786000BFDD
:10245C000C37BD4680BC704780B483B000AF786049
:10246C0000BF0C37BD4680BC7047000080B485B0FF
:10247C0000AF786039607B681B68FB607B682B4A17
:10248C00934207D07B68B3F1804F03D07B68284A16
:10249C00934208D1FB6823F07003FB603B685B68D8
:1024AC00FA681343FB607B68204A934207D07B6831
:1024BC00B3F1804F03D07B681D4A934208D1FB686F
:1024CC0023F44073FB603B68DB68FA681343FB60E2
:1024DC00FB6823F080023B685B691343FB607B68FD
:1024EC00FA681A603B689A687B68DA623B681A681B
:1024FC007B689A627B680D4A934203D13B681A69E8
:10250C007B681A637B6801225A617B681B6903F044
:10251C000103002B05D07B681B6923F001027B684B
:10252C001A6100BF1437BD4680BC7047002C0140B7
:10253C000004004080B487B000AFF860B9607A60E6
:10254C00FB681B6A7B61FB681B6A23F00102FB685A
:10255C001A62FB689B693B613B6923F0F0033B61AA
:10256C007B681B013A6913433B617B6923F00A03C7
:10257C007B617A69BB6813437B61FB683A699A613A
:10258C00FB687A691A6200BF1C37BD4680BC704775
:10259C0080B487B000AFF860B9607A60FB681B6AE2
:1025AC007B61FB681B6A23F01002FB681A62FB68F4
:1025BC009B693B613B6923F470433B617B681B0364
:1025CC003A6913433B617B6923F0A0037B61BB68D1
:1025DC001B017A6913437B61FB683A699A61FB685A
:1025EC007A691A6200BF1C37BD4680BC704780B444
:1025FC0085B000AF786039607B689B68FB60FB68D6
:10260C0023F07003FB603A68FB68134343F0070345
:10261C00FB607B68FA689A6000BF1437BD4680BCCB
:10262C00704780B487B000AFF860B9607A603B60E7
:10263C00FB689B687B617B6923F47F437B613B6810
:10264C001A027B681A43BB6813437A6913437B6194
:10265C00FB687A699A6000BF1C37BD4680BC704726
:10266C0080B485B000AF786039607B6893F83C30FB
:10267C00012B01D1022341E07B68012283F83C202D
:10268C007B68022283F83D207B681B685B68FB60DB
:10269C007B681B689B68BB60FB6823F07003FB6066
:1026AC003B681B68FA681343FB607B681B68FA681D
:1026BC005A607B681B68144A934209D07B681B687C
:1026CC00B3F1804F04D07B681B68104A93420CD145
:1026DC00BB6823F08003BB603B685B68BA6813433C
:1026EC00BB607B681B68BA689A607B68012283F8C0
:1026FC003D207B68002283F83C20002318461437C9
:10270C00BD4680BC704700BF002C01400004004057
:10271C0080B483B000AF786000BF0C37BD4680BC7E
:10272C00704780B483B000AF786000BF0C37BD46F3
:10273C0080BC704770B500260C4D0D4C641BA4106A
:10274C00A64209D100F022F800260A4D0A4C641B5F
:10275C00A410A64205D170BD55F8043B984701362C
:10276C00EEE755F8043B98470136F2E7D42700080A
:10277C00D4270008D4270008D827000803460244B1
:10278C00934200D1704703F8011BF9E7F8B500BF7D
:10279C00F8BC08BC9E467047F8B500BFF8BC08BC36
:0427AC009E4670478E
:1027B00000000000000000000102030406070809F1
:1027C00002030405060708090A0B0C0D0E0F101072
:0427D0000102000002
:0427D40031010008C7
:0427D8000D010008E7
:1027DC0002010102010100004D010008490300083B
:1027EC00A1030008F903000802010100C0F9A4B01C
:1027FC00999282F880900A000001000200040008FF
:0C280C0000127A00100000000100000023
:0400000508001121BD
:00000001FF
